{
  "_format": "hh-sol-artifact-1",
  "contractName": "TinyBank",
  "sourceName": "contracts/TinyBank.sol",
  "abi": [
    {
      "inputs": [
        {
          "internalType": "contract IMyToken",
          "name": "_stakingToken",
          "type": "address"
        }
      ],
      "stateMutability": "nonpayable",
      "type": "constructor"
    },
    {
      "anonymous": false,
      "inputs": [
        {
          "indexed": false,
          "internalType": "address",
          "name": "from",
          "type": "address"
        },
        {
          "indexed": false,
          "internalType": "uint256",
          "name": "amount",
          "type": "uint256"
        }
      ],
      "name": "Staked",
      "type": "event"
    },
    {
      "anonymous": false,
      "inputs": [
        {
          "indexed": false,
          "internalType": "uint256",
          "name": "amount",
          "type": "uint256"
        },
        {
          "indexed": false,
          "internalType": "address",
          "name": "to",
          "type": "address"
        }
      ],
      "name": "Withdraw",
      "type": "event"
    },
    {
      "inputs": [],
      "name": "defaultRewardPerBlock",
      "outputs": [
        {
          "internalType": "uint256",
          "name": "",
          "type": "uint256"
        }
      ],
      "stateMutability": "view",
      "type": "function"
    },
    {
      "inputs": [
        {
          "internalType": "address",
          "name": "",
          "type": "address"
        }
      ],
      "name": "lastClaimedBlock",
      "outputs": [
        {
          "internalType": "uint256",
          "name": "",
          "type": "uint256"
        }
      ],
      "stateMutability": "view",
      "type": "function"
    },
    {
      "inputs": [],
      "name": "manager",
      "outputs": [
        {
          "internalType": "address",
          "name": "",
          "type": "address"
        }
      ],
      "stateMutability": "view",
      "type": "function"
    },
    {
      "inputs": [],
      "name": "owner",
      "outputs": [
        {
          "internalType": "address",
          "name": "",
          "type": "address"
        }
      ],
      "stateMutability": "view",
      "type": "function"
    },
    {
      "inputs": [],
      "name": "rewardPerBlock",
      "outputs": [
        {
          "internalType": "uint256",
          "name": "",
          "type": "uint256"
        }
      ],
      "stateMutability": "view",
      "type": "function"
    },
    {
      "inputs": [
        {
          "internalType": "uint256",
          "name": "_amount",
          "type": "uint256"
        }
      ],
      "name": "setRewardPerBlock",
      "outputs": [],
      "stateMutability": "nonpayable",
      "type": "function"
    },
    {
      "inputs": [
        {
          "internalType": "uint256",
          "name": "_amount",
          "type": "uint256"
        }
      ],
      "name": "stake",
      "outputs": [],
      "stateMutability": "nonpayable",
      "type": "function"
    },
    {
      "inputs": [
        {
          "internalType": "address",
          "name": "",
          "type": "address"
        }
      ],
      "name": "staked",
      "outputs": [
        {
          "internalType": "uint256",
          "name": "",
          "type": "uint256"
        }
      ],
      "stateMutability": "view",
      "type": "function"
    },
    {
      "inputs": [],
      "name": "stakingToken",
      "outputs": [
        {
          "internalType": "contract IMyToken",
          "name": "",
          "type": "address"
        }
      ],
      "stateMutability": "view",
      "type": "function"
    },
    {
      "inputs": [],
      "name": "totalStaked",
      "outputs": [
        {
          "internalType": "uint256",
          "name": "",
          "type": "uint256"
        }
      ],
      "stateMutability": "view",
      "type": "function"
    },
    {
      "inputs": [
        {
          "internalType": "uint256",
          "name": "_amount",
          "type": "uint256"
        }
      ],
      "name": "withdraw",
      "outputs": [],
      "stateMutability": "nonpayable",
      "type": "function"
    }
  ],
  "bytecode": "0x6080604052670de0b6b3a764000060045534801561001c57600080fd5b50604051611146380380611146833981810160405281019061003e9190610188565b3333816000806101000a81548173ffffffffffffffffffffffffffffffffffffffff021916908373ffffffffffffffffffffffffffffffffffffffff16021790555080600160006101000a81548173ffffffffffffffffffffffffffffffffffffffff021916908373ffffffffffffffffffffffffffffffffffffffff160217905550505080600260006101000a81548173ffffffffffffffffffffffffffffffffffffffff021916908373ffffffffffffffffffffffffffffffffffffffff160217905550600454600581905550506101b5565b600080fd5b600073ffffffffffffffffffffffffffffffffffffffff82169050919050565b600061014382610118565b9050919050565b600061015582610138565b9050919050565b6101658161014a565b811461017057600080fd5b50565b6000815190506101828161015c565b92915050565b60006020828403121561019e5761019d610113565b5b60006101ac84828501610173565b91505092915050565b610f82806101c46000396000f3fe608060405234801561001057600080fd5b50600436106100a95760003560e01c80638ae39cac116100715780638ae39cac146101425780638da5cb5b1461016057806398807d841461017e578063a694fc3a146101ae578063bb872b4a146101ca578063c19e82d5146101e6576100a9565b80630a60368d146100ae5780632e1a7d4d146100cc578063481c6a75146100e857806372f702f314610106578063817b1cd214610124575b600080fd5b6100b6610216565b6040516100c39190610a67565b60405180910390f35b6100e660048036038101906100e19190610ab3565b61021c565b005b6100f06105b0565b6040516100fd9190610b21565b60405180910390f35b61010e6105d6565b60405161011b9190610b9b565b60405180910390f35b61012c6105fc565b6040516101399190610a67565b60405180910390f35b61014a610602565b6040516101579190610a67565b60405180910390f35b610168610608565b6040516101759190610b21565b60405180910390f35b61019860048036038101906101939190610be2565b61062c565b6040516101a59190610a67565b60405180910390f35b6101c860048036038101906101c39190610ab3565b610644565b005b6101e460048036038101906101df9190610ab3565b61099c565b005b61020060048036038101906101fb9190610be2565b610a36565b60405161020d9190610a67565b60405180910390f35b60045481565b336000600660008373ffffffffffffffffffffffffffffffffffffffff1673ffffffffffffffffffffffffffffffffffffffff1681526020019081526020016000205411156103af576000600360008373ffffffffffffffffffffffffffffffffffffffff1673ffffffffffffffffffffffffffffffffffffffff16815260200190815260200160002054436102b29190610c3e565b90506000600754600660008573ffffffffffffffffffffffffffffffffffffffff1673ffffffffffffffffffffffffffffffffffffffff16815260200190815260200160002054600554846103079190610c72565b6103119190610c72565b61031b9190610ce3565b9050600260009054906101000a900473ffffffffffffffffffffffffffffffffffffffff1673ffffffffffffffffffffffffffffffffffffffff166394bf804d82856040518363ffffffff1660e01b815260040161037a929190610d14565b600060405180830381600087803b15801561039457600080fd5b505af11580156103a8573d6000803e3d6000fd5b5050505050505b43600360008373ffffffffffffffffffffffffffffffffffffffff1673ffffffffffffffffffffffffffffffffffffffff1681526020019081526020016000208190555081600660003373ffffffffffffffffffffffffffffffffffffffff1673ffffffffffffffffffffffffffffffffffffffff168152602001908152602001600020541015610475576040517f08c379a000000000000000000000000000000000000000000000000000000000815260040161046c90610d9a565b60405180910390fd5b600260009054906101000a900473ffffffffffffffffffffffffffffffffffffffff1673ffffffffffffffffffffffffffffffffffffffff1663b7760c8f83336040518363ffffffff1660e01b81526004016104d2929190610d14565b600060405180830381600087803b1580156104ec57600080fd5b505af1158015610500573d6000803e3d6000fd5b5050505081600660003373ffffffffffffffffffffffffffffffffffffffff1673ffffffffffffffffffffffffffffffffffffffff16815260200190815260200160002060008282546105539190610c3e565b92505081905550816007600082825461056c9190610c3e565b925050819055507f8353ffcac0876ad14e226d9783c04540bfebf13871e868157d2a391cad98e91882336040516105a4929190610d14565b60405180910390a15050565b600160009054906101000a900473ffffffffffffffffffffffffffffffffffffffff1681565b600260009054906101000a900473ffffffffffffffffffffffffffffffffffffffff1681565b60075481565b60055481565b60008054906101000a900473ffffffffffffffffffffffffffffffffffffffff1681565b60066020528060005260406000206000915090505481565b336000600660008373ffffffffffffffffffffffffffffffffffffffff1673ffffffffffffffffffffffffffffffffffffffff1681526020019081526020016000205411156107d7576000600360008373ffffffffffffffffffffffffffffffffffffffff1673ffffffffffffffffffffffffffffffffffffffff16815260200190815260200160002054436106da9190610c3e565b90506000600754600660008573ffffffffffffffffffffffffffffffffffffffff1673ffffffffffffffffffffffffffffffffffffffff168152602001908152602001600020546005548461072f9190610c72565b6107399190610c72565b6107439190610ce3565b9050600260009054906101000a900473ffffffffffffffffffffffffffffffffffffffff1673ffffffffffffffffffffffffffffffffffffffff166394bf804d82856040518363ffffffff1660e01b81526004016107a2929190610d14565b600060405180830381600087803b1580156107bc57600080fd5b505af11580156107d0573d6000803e3d6000fd5b5050505050505b43600360008373ffffffffffffffffffffffffffffffffffffffff1673ffffffffffffffffffffffffffffffffffffffff16815260200190815260200160002081905550600082101561085f576040517f08c379a000000000000000000000000000000000000000000000000000000000815260040161085690610e06565b60405180910390fd5b600260009054906101000a900473ffffffffffffffffffffffffffffffffffffffff1673ffffffffffffffffffffffffffffffffffffffff166323b872dd3330856040518463ffffffff1660e01b81526004016108be93929190610e26565b600060405180830381600087803b1580156108d857600080fd5b505af11580156108ec573d6000803e3d6000fd5b5050505081600660003373ffffffffffffffffffffffffffffffffffffffff1673ffffffffffffffffffffffffffffffffffffffff168152602001908152602001600020600082825461093f9190610e5d565b9250508190555081600760008282546109589190610e5d565b925050819055507f9e71bc8eea02a63969f509818f2dafb9254532904319f9dbda79b67bd34a5f3d3383604051610990929190610e91565b60405180910390a15050565b600160009054906101000a900473ffffffffffffffffffffffffffffffffffffffff1673ffffffffffffffffffffffffffffffffffffffff163373ffffffffffffffffffffffffffffffffffffffff1614610a2c576040517f08c379a0000000000000000000000000000000000000000000000000000000008152600401610a2390610f2c565b60405180910390fd5b8060058190555050565b60036020528060005260406000206000915090505481565b6000819050919050565b610a6181610a4e565b82525050565b6000602082019050610a7c6000830184610a58565b92915050565b600080fd5b610a9081610a4e565b8114610a9b57600080fd5b50565b600081359050610aad81610a87565b92915050565b600060208284031215610ac957610ac8610a82565b5b6000610ad784828501610a9e565b91505092915050565b600073ffffffffffffffffffffffffffffffffffffffff82169050919050565b6000610b0b82610ae0565b9050919050565b610b1b81610b00565b82525050565b6000602082019050610b366000830184610b12565b92915050565b6000819050919050565b6000610b61610b5c610b5784610ae0565b610b3c565b610ae0565b9050919050565b6000610b7382610b46565b9050919050565b6000610b8582610b68565b9050919050565b610b9581610b7a565b82525050565b6000602082019050610bb06000830184610b8c565b92915050565b610bbf81610b00565b8114610bca57600080fd5b50565b600081359050610bdc81610bb6565b92915050565b600060208284031215610bf857610bf7610a82565b5b6000610c0684828501610bcd565b91505092915050565b7f4e487b7100000000000000000000000000000000000000000000000000000000600052601160045260246000fd5b6000610c4982610a4e565b9150610c5483610a4e565b9250828203905081811115610c6c57610c6b610c0f565b5b92915050565b6000610c7d82610a4e565b9150610c8883610a4e565b9250828202610c9681610a4e565b91508282048414831517610cad57610cac610c0f565b5b5092915050565b7f4e487b7100000000000000000000000000000000000000000000000000000000600052601260045260246000fd5b6000610cee82610a4e565b9150610cf983610a4e565b925082610d0957610d08610cb4565b5b828204905092915050565b6000604082019050610d296000830185610a58565b610d366020830184610b12565b9392505050565b600082825260208201905092915050565b7f696e73756666696369656e74207374616b656420746f6b656e00000000000000600082015250565b6000610d84601983610d3d565b9150610d8f82610d4e565b602082019050919050565b60006020820190508181036000830152610db381610d77565b9050919050565b7f63616e6e6f74207374616b65203020616d6f756e740000000000000000000000600082015250565b6000610df0601583610d3d565b9150610dfb82610dba565b602082019050919050565b60006020820190508181036000830152610e1f81610de3565b9050919050565b6000606082019050610e3b6000830186610b12565b610e486020830185610b12565b610e556040830184610a58565b949350505050565b6000610e6882610a4e565b9150610e7383610a4e565b9250828201905080821115610e8b57610e8a610c0f565b5b92915050565b6000604082019050610ea66000830185610b12565b610eb36020830184610a58565b9392505050565b7f596f7520617265206e6f7420617574686f72697a656420746f206d616e61676560008201527f207468697320636f6e7472616374000000000000000000000000000000000000602082015250565b6000610f16602e83610d3d565b9150610f2182610eba565b604082019050919050565b60006020820190508181036000830152610f4581610f09565b905091905056fea264697066735822122024172b0f7d1e830a9f284dc64873620852c53d30487bf149e25ce45379e8d5fc64736f6c634300081c0033",
  "linkReferences": {},
  "deployedLinkReferences": {}
}